:020000040800F2
:10000000081000209D010008454F000881480008A5
:10001000414F00088D0F0008215900080000000022
:10002000000000000000000000000000494F000830
:10003000071C000800000000474F0008F14F0008AF
:10004000B7010008B7010008B7010008B7010008B0
:10005000B7010008B7010008B7010008B7010008A0
:10006000B7010008B7010008B7010008B701000890
:10007000B7010008B7010008B7010008B701000880
:10008000B7010008B70100081D0E0008A10F000805
:10009000910F0008B7010008B7010008B701000878
:1000A000B7010008C9500008B7010008B7010008EF
:1000B000B7010008B7010008B7010008B701000840
:1000C000B7010008B7010008B7010008B701000830
:1000D000B7010008B701000811590008B70100086E
:1000E000B7010008B7010008B7010008B701000810
:1000F000B7010008B7010008B7010008B701000800
:10010000B7010008B7010008B7010008B7010008EF
:10011000A5530008B5530008B7010008E1500008D6
:10012000191B0008B7010008B7010008B701000853
:10013000B7010008B7010008B7010008D10F000897
:10014000B10F0008C10F0008B7010008B70100088F
:10015000B7010008B7010008B7010008B70100089F
:10016000B7010008B7010008B7010008B70100088F
:10017000B7010008B7010008B7010008000000003F
:10018000B7010008B7010008DFF80CD000F084FCCC
:1001900000480047456A00080810002006488047CC
:1001A00006480047FEE7FEE7FEE7FEE7FEE7FEE75C
:1001B000FEE7FEE7FEE7FEE7AD5000088901000814
:1001C0002DE9F05F0546002092469B46884606468C
:1001D000814640241BE0284641464746224600F01F
:1001E0004AFB53465A46C01A914110D3114618464D
:1001F000224600F031FB2D1A67EB01084F462246DC
:100200000120002100F028FB17EB00094E41201EC1
:10021000A4F10104DFDC484631462A464346BDE8E6
:10022000F09F40EA01039B0703D009E008C9121FB1
:1002300008C0042AFAD203E011F8013B00F8013BA0
:10024000521EF9D27047D2B201E000F8012B491ECC
:10025000FBD270470022F6E710B513460A46044663
:100260001946FFF7F0FF204610BD421C10F8011B95
:100270000029FBD1801A70470FB400B58DB010A9CA
:1002800009900B9000914FF0FF300A9000200C90E5
:1002900005480690054807906A4609A80F9900F09E
:1002A00021FB0DB05DF814FB010900081F090008CF
:1002B0002DE9FF5F1D464FF0FF3BD5E90146914612
:1002C0005F464FF00008A9697F1C01988847296A9A
:1002D000824688470028F6D1BAF1FF3F0CD024F4BB
:1002E000C064002E19DD600614D5BAF12B0F09D0B9
:1002F000BAF12D0F0ED103E0584604B0BDE8F09FCF
:1003000044F48064A9697F1C01988847761E824660
:10031000002E02DDBAF1300F03D0B9F1000F26D064
:1003200032E0A969761E44F400747F1C0198884766
:100330008246002E05DDBAF1780F06D0BAF1580FCB
:1003400003D0B9F1000F10D01EE0B9F1000F02D0B8
:10035000B9F1100F18D1A969761E24F400747F1C1E
:10036000019888478246102002E0082000E00A2019
:10037000814609E008FB0908A969761E44F4007467
:100380007F1C019888478246002E05DD494650466D
:1003900000F093FA0028EDDAE96901988847A00592
:1003A00002D46FF00100A8E7E00725D1600613D55D
:1003B000600502D5C8F1000000E0404629680A1D2A
:1003C0002A600968220501D5087015E0220701D5C9
:1003D000088011E008600FE02868011D29600068AE
:1003E000210502D580F8008006E0210702D5A0F89B
:1003F000008001E0C0F8008038467EE72DE9FE4F1E
:10040000804681EA0300C00F0C46009021F00041B5
:1004100023F00045B8EB0200A94105D24046214631
:1004200090461C460B46024623F00040104347D03E
:10043000270DC7F30A00C3F30A510290401A019036
:1004400040286BDAC3F3130040F4801B00989246F7
:1004500020B10023D2EB030A63EB0B0B0198594642
:10046000C0F14002504600F0F7F906460D465046EE
:100470005946019A00F00FFA10EB08006141002480
:1004800087EA115284EAE7731A4340D0009A62B3B4
:10049000019A012A4FEA075215DC001B61EB0201A9
:1004A0004FF0004202EA0752CDE90042001C41F53C
:1004B000801132462B4600F089FA03B0BDE8F08F78
:1004C00040462146F9E7001B61EB0201001C41F5A3
:1004D000801300185B412018A2F5001747EB0301B9
:1004E00040EAD570B6196D4111E06D084FEA360645
:1004F00045EAC0754FEA0752001B61EB0201001C80
:1005000041F5801149084FEA300000195141324647
:100510002B4603B0BDE8F04F00F049BA0098012225
:1005200040000023D0EB020263EBE0730098214609
:100530004FEAE074B8EB000061EB0401E9E783F0F7
:1005400000435BE781F0004158E72DE9FE4F81EA67
:10055000030404F0004421F0004100944FF0000B2C
:1005600023F0004350EA01045ED052EA03045BD05A
:10057000C3F30A54C1F30A552C44A4F2F334019492
:10058000A0FB0254C1F3130141F48011C3F3130320
:1005900043F4801301FB024400FB034E840A970AD4
:1005A00044EA815447EA8357A4FB076802958D0A01
:1005B00005FB07854FEA932C04FB0C542705029D8D
:1005C0004FEA065847EA1637B5EB08056EEB070CFD
:1005D000870E920E47EA811742EA8312A7FB0201B7
:1005E000B6EB0B0164EB00042B0D43EA0C335E18F1
:1005F00044EB1C50DA465146E7FB0201C5F31304F5
:100600004FEA0B3343EA14534FEA0432019C43EAA6
:100610000603A4F10C040294009CCDE900B400F0A0
:10062000D5F903B0BDE8F08F00200146F9E72DE9C8
:10063000F04D81EA030404F0004B21F0004514461C
:100640004FF0000A23F0004150EA050220D054EA9E
:1006500001021DD0C5F30A570246C5F31303C1F3C7
:100660001300C1F30A5640F4801543F48013A7EB3E
:100670000608101BD64608F2FD3873EB050002D3BE
:1006800008F1010801E092185B41B8F1000F03DAAC
:1006900000200146BDE8F08D00204FF48011064691
:1006A00084460EE0171B73EB050705D3121B63EBA3
:1006B000050306434CEA010C49084FEA3000921842
:1006C0005B4150EA0107EDD152EA030012D082EA01
:1006D000040083EA0501084305D0101BAB4106D294
:1006E0000122002306E000224FF0004302E06FF0F9
:1006F000010253101AEB06004CEB085110EB0A00F4
:1007000041EB0B01BDE8F04D00F051B90EB5C10F42
:1007100080EAE0700844CA07002140F233438DE8C4
:100720000E000A460B4600F051F903B000BD70B54B
:10073000C1F30A5201F000450024C1F3130140F255
:10074000FF3341F480119A4201DA002070BD40F27B
:1007500033439A42A2F2334203DC524200F08BF858
:1007600000E090402C43F1D0404270BD00F00042C8
:1007700030F000400AD0C10D01F56071C0F31600E1
:1007800042EA0151C2084007114370470020014668
:100790007047000030B5041E71F1000404DB4FF017
:1007A0000044404264EB0101141E73F1000405DBB8
:1007B0001C464FF00043524263EB04038B4208BFD8
:1007C000824230BD30B5041E71F1000404DB4FF0ED
:1007D0000044404264EB0101141E73F1000405DB88
:1007E0001C464FF00043524263EB0403994208BF9A
:1007F000904230BD01F0004330B421F0004150EA96
:10080000010206D00A0DA2F56072C1F31301002A9D
:1008100002DC30BC00207047440F44EAC104C10030
:10082000E01830BC00EBC25000F08AB830B50B467F
:10083000014600202022012409E021FA02F59D4210
:1008400005D303FA02F5491B04FA02F52844151EE4
:10085000A2F10102F1DC30BD202A04DB203A00FACB
:1008600002F1002070479140C2F1200320FA03F307
:10087000194390407047202A04DB203A21FA02F005
:100880000021704721FA02F3D040C2F120029140CA
:10089000084319467047202A06DBCB17203A41FA55
:1008A00002F043EAE07306E041FA02F3D040C2F1FD
:1008B000200291400843194670473A2800D2303848
:1008C00020F02002412A01D3A2F13700884201D34F
:1008D0004FF0FF3070470000026811441378016048
:1008E00018467047D16004495161044911620021E2
:1008F0001161114600F0E8B8D9080008BD0A0008E7
:10090000426842B1016811F8013B23B1521EC0E9AF
:100910000012184670470121C160881E7047426866
:100920005AB1C368016843B983688B4205D0491E38
:10093000521CC0E90012002070474FF0FF30704792
:100940000029A8BF7047401C490008BF20F00100E3
:10095000704710B4B0FA80FC00FA0CF050EA0104C1
:1009600004BF10BC704749B1CCF1200421FA04F453
:1009700011FA0CF118BF012121430843A3EB0C012C
:10098000CB1D4FEA00614FEA102042BF002010BC8F
:10099000704700EBC35010440029A4BF10BC70473F
:1009A000401C490008BF20F0010010BC704710B582
:1009B000141E73F1000408DA401C41F10001921882
:1009C0005B411A4301D120F0010010BD2DE9F04D2B
:1009D00092469B4611B1B1FA81F202E0B0FA80F280
:1009E00020329046FFF738FF04460F4640EA0A00DF
:1009F00041EA0B0153465A46084313D0114653EAC5
:100A0000010019D0C8F140025046FFF734FF0546F7
:100A10000E46504659464246FFF71EFF084305D092
:100A2000012004E020463946BDE8F08D0020054352
:100A300046EAE0762C4337430A986305E40AA0EBC4
:100A400008000022FD0A44EA47540A3002D500207B
:100A50000146E9E7010510196941DDE9084500197A
:100A60006941BDE8F04DA2E7C1F30A52C1F3130199
:100A700040F2FF3341F480119A4202DA002001462D
:100A8000704740F233439A42A2F2334202DC5242B0
:100A9000FFF7F1BEFFF7E0BE064C074D06E0E06849
:100AA00040F0010394E8070098471034AC42F6D3B5
:100AB000FFF76EFB4077000860770008C0B24FF484
:100AC000F05100F097B900002DE9F34F8BB04FF0D3
:100AD000000801F10C000C464FF0010B46460DF1E9
:100AE000080A01906269012101989047051E2DD0E6
:100AF000252D2CD0216A8847C0B162690121019857
:100B00009047216A88470028F7D1411E6269019801
:100B1000904700E0761CA1690B988847216A8847B6
:100B20000028F7D1E1690B988847DBE7A1690B98AA
:100B300088470746A84201D1761CD3E7E1690B98A4
:100B400088477F1C02D1B8F1000F6FD046E1002723
:100B500062693D463946019890472A2804D1626966
:100B60000121019890470125DFF8849262690121F3
:100B700001989047A0F130010A290AD24F45E5DCDF
:100B800007EB870100EB4107303FDFD445F010054C
:100B9000ECE7E90601D46FF000476C280AD04C2836
:100BA00014D0682815D06A280DD074281CD07A2853
:100BB0001AD01DE062690121019890476C2802D08B
:100BC00045F0040514E045F002050DE045F0200570
:100BD0000AE06269012101989047682802D045F037
:100BE000080505E045F40065626901210198904718
:100BF000C4E9015765283DD019DC58287AD00CDCAF
:100C0000452837D004DC252826D0412831D131E0D1
:100C100046282FD047282CD12CE05B2877D061289C
:100C200028D063287CD0642823D15AE0D0E06F28F4
:100C300048D008DC66281DD067281BD0692821D041
:100C40006E2816D127E0702845D0732868D0752803
:100C500047D078280DD14DE0A1690B98884705460B
:100C600025283FF469AFE1690B9888476D1C3FF474
:100C70006AAFB3E023466A466FF001000B99AFF309
:100C800000809EE045F040006060A80723464FF0DA
:100C9000000236D43EE0E8077FF447AF2068011D2C
:100CA00021600068290501D506701BE7290701D5D9
:100CB000068017E7A90703D5F117C0E9006111E71E
:100CC00006600FE745F040006060A80723464FF03C
:100CD000080216D41EE040F60E0125EA010060600D
:100CE00016E045F040006060A80723464FF00A0276
:100CF00007D40FE045F040006060A80708D5234600
:100D000010226FF001000B99AFF3008059E007E06B
:100D1000234610226FF001000B99FFF7C9FA50E04B
:100D20004FF000094F464B46632802D05B2806D09F
:100D300040E0E80601D40120A06001273AE06269A2
:100D40000121019890475E2805D14FF001096269A1
:100D5000494601989047216939B900210A4653460E
:100D600043F82120491C0829FADBB0B3216969B98D
:100D7000C11700EBD16253110AEB830122F01F026D
:100D8000821A01200B68904003430B6062690121C5
:100D9000019890475D28E8D1B9F1000F09D00020F3
:100DA000514651F82020D24341F82020401C082809
:100DB000F7DB02AB224600976FF001000B99AFF30F
:100DC000008000280CDA401C08D1BBF1000F05D0D0
:100DD0004FF0FF300DB0BDE8F08FFFE74046F9E778
:100DE000E90701D108F1010806444FF0000B79E64C
:100DF000CCCCCC0C7F2801D9002208E0064A02EBBB
:100E00005002C007127800D1120902F00F0201202F
:100E100090400840704700000077000810B5024875
:100E200000F0BCFF10BD0000F000002055494A68EA
:100E300022F440324A604A6843681A434A600268B2
:100E4000526822F4807203685A600268536802692B
:100E500043EA022203685A600268526822F0407234
:100E600003685A600268526883681A4303685A60CC
:100E70000268926822F4006203689A6002689268CD
:100E8000C3681A4303689A603F4B826A9A4218D03B
:100E90000268926822F0706203689A600268926841
:100EA000836A1A4303689A600268926822F040528B
:100EB00003689A6002689268C36A1A4303689A607A
:100EC0000BE00268926822F0706203689A60026820
:100ED000926822F0405203689A600268926822F099
:100EE000020203689A6002689368027E43EA420243
:100EF00003689A602022125CA2B10268526842F430
:100F0000006203685A600268526822F46042036813
:100F10005A6002685368426A521E43EA42320368CA
:100F20005A6005E00268526822F4006203685A6061
:100F30000268D26A22F470020368DA620268D36A35
:100F4000828B521E43EA02520368DA620268926898
:100F500022F4007203689A600268936890F8302067
:100F600043EA422203689A600268926822F480622F
:100F700003689A6002689368426943EA82220368C0
:100F80009A607047002301400100000F00BFFEE798
:100F900010B5024801F05DF810BD00009801002076
:100FA00010B5024801F055F810BD0000980100206E
:100FB00010B5024801F04DF810BD0000C00100203E
:100FC00010B5024801F045F810BD0000C001002036
:100FD00010B5024801F03DF810BD0000C00100202E
:100FE00010B52DED028B814890ED000AB8EEC00AD5
:100FF0007F4880ED040A7F4890ED000AB8EEC00AF1
:101000007D4880ED040A7A4890ED060AD0ED040A86
:1010100030EE600A80ED050A774890ED060AD0EDC3
:10102000040A30EE600A80ED050A714890ED0C0A62
:1010300010EE101A0846FFF799FB41EC180B9FEDD4
:101040006F0B53EC102BFFF7BDFB04D8B7EE000A73
:10105000674880ED0C0A664890ED0C0A10EE101AF5
:101060000846FFF783FB41EC180B9FED660B53EC32
:10107000102BFFF78FFB04D8BFEE000A5C4880ED11
:101080000C0A5D4890ED0C0A10EE101A0846FFF7A6
:101090006DFB41EC180B9FED590B53EC102BFFF738
:1010A00091FB04D8B7EE000A534880ED0C0A524871
:1010B00090ED0C0A10EE101A0846FFF757FB41ECB2
:1010C000180B9FED500B53EC102BFFF763FB04D86C
:1010D000BFEE000A484880ED0C0A454890ED0B0A27
:1010E000D0ED0C0A30EE200AD0ED0D0A30EE200AC9
:1010F00080ED0E0A404890ED0B0AD0ED0C0A30EE60
:10110000200AD0ED0D0A30EE200A80ED0E0A384894
:10111000D0ED0E0AB0EE600A9FED3C2ADFED3C1ADE
:101120009FED3C1ADFED3C0A06F006FA304988874D
:101130003148D0ED0E0AB0EE600A9FED382ADFED9F
:10114000381A9FED341ADFED340A06F0F5F92A4912
:10115000888701221102334801F0FFFC0122D103EC
:10116000314801F0FAFC2448B0F93C00002805DAC7
:10117000012251032C4801F0F0FC0AE01E48B0F9AE
:101180003C00002805DD00224FF40051264801F004
:10119000E4FC1748B0F93C00002806DA00224FF4BE
:1011A0008071224801F0D9FC09E01148B0F93C00F7
:1011B000002804DD012211021C4801F0CEFC0E497A
:1011C000B1F93C00002801DB014600E04142184A29
:1011D00011600749B1F93C00002801DB014600E03D
:1011E0004142144A1160BDEC028B10BD500000203A
:1011F000100800204C0000205008002000000000D3
:101200000000F03F000000000000F0BF00B8DA4529
:1012100000B8DAC57B14EE3F7B14EEBF00B05A4530
:1012200000B05AC500000240000C02400008024015
:101230003C0800404004014010B52DED108BFC48E7
:1012400090ED030AD0ED020A30EE600A10EE101A9B
:101250000846FFF78BFA41EC190BB0EE490AF0EEA5
:10126000690A04F08FFBB0EE408AF0EE608A9FEDD1
:10127000F10B53EC102B51EC180BFFF78BFA05D246
:10128000EB4890ED020A80ED030A3EE0E84890ED5D
:10129000030AD0ED020AB4EEE00AF1EE10FA15D21C
:1012A00090ED030A10EE101A0846FFF75FFA41ECC2
:1012B000190B9FEDE00B53EC102BFFF79FF841EC5F
:1012C000180BFFF797FADA49C8601EE0D84890ED8E
:1012D000030AD0ED020AB4EEE00AF1EE10FA14DDD2
:1012E00090ED030A10EE101A0846FFF73FFA41ECA2
:1012F000190B9FEDD00B53EC102BFFF720F941ECAD
:10130000180BFFF777FACA49C860CC4890ED030A7A
:10131000D0ED020A30EE600A10EE101A0846FFF710
:1013200025FA41EC190BB0EE490AF0EE690A04F017
:1013300029FBB0EE408AF0EE608A9FEDBE0B53ECC5
:10134000102B51EC180BFFF725FA05D2BB4890ED96
:10135000020A80ED030A3EE0B84890ED030AD0EDA2
:10136000020AB4EEE00AF1EE10FA15D290ED030A8B
:1013700010EE101A0846FFF7F9F941EC190B9FED32
:10138000AD0B53EC102BFFF739F841EC180BFFF7BE
:1013900031FAAA49C8601EE0A84890ED030AD0EDD2
:1013A000020AB4EEE00AF1EE10FA14DD90ED030A41
:1013B00010EE101A0846FFF7D9F941EC190B9FED12
:1013C0009D0B53EC102BFFF7BAF841EC180BFFF70D
:1013D00011FA9A49C860964890ED030A9748D0EDF3
:1013E000030A30EE600A10EE101A0846FFF7BEF945
:1013F00041EC1B0B9FED920B53EC102BFFF7A5F864
:1014000041EC1A0B9FED900B53EC102BFFF70FF9EB
:1014100041EC190B9FED8E0B53EC102BFFF707F9E6
:1014200041EC180B8C4890ED000B53EC102B51EC59
:10143000180BFEF7E3FF884A03C29FED880B53ECBD
:10144000102B854890ED000B51EC100BFFF7BAF90B
:101450000DD29FED840B53EC102B7F4890ED000BC9
:1014600051EC100BFFF76BF87B4A03C218E09FEDBD
:101470007F0B53EC102B784890ED000B51EC100BC8
:10148000FFF788F90CD29FED770B53EC102B7248C5
:1014900090ED000B51EC100BFEF7B0FF6E4A03C24B
:1014A000744890ED000B53EC102B6B4890ED000B43
:1014B00051EC100BFEF7A2FF6F4A03C29FED670BC2
:1014C00053EC102B6C4890ED000B51EC100BFFF718
:1014D00079F90DD29FED630B53EC102B664890ED1C
:1014E000000B51EC100BFFF72AF8634A03C218E017
:1014F0009FED5E0B53EC102B5F4890ED000B51EC11
:10150000100BFFF747F90CD29FED560B53EC102B45
:10151000594890ED000B51EC100BFEF76FFF564A47
:1015200003C2434890ED000A10EE101A0846FFF778
:101530001DF941EC1A0B504890ED000B04F022FA13
:10154000B0EE408AF0EE608A9FED4C0B53EC102B0E
:1015500051EC180BFFF736F913D2474890ED000B0A
:1015600051EC100BFFF746F908EE100AB0EE480AEE
:1015700006F0ACF800EB800084002046FFF7C6F8C8
:1015800001E03D4803C841EC190B9FED3E0B53ECC5
:10159000102BFFF74CF841EC1D0B254890ED030A8A
:1015A00010EE101A0846FFF7E1F841EC1B0B53EC64
:1015B0001D2BFEF723FF41EC1C0B53EC1A2BFEF7FF
:1015C000BEFF41EC1E0BFFF715F9194948601B4897
:1015D00090ED000A10EE101A0846FFF7C7F841EC2C
:1015E0001A0B254890ED000B04F0CCF9B0EE408AC0
:1015F000F0EE608A9FED210B53EC102B51EC180B91
:10160000FFF7E0F842D21C4890ED000B51EC100BB4
:10161000FFF7F0F808EE100AB0EE480A06F056F8A8
:1016200000EB800084002046FFF770F830E00000F7
:1016300010080020FCA9F1D24D62503F5008002054
:101640000AD7A3703D0AC73F1F85EB51B81EE93F7B
:10165000182D4454FB210940C00000200000000068
:10166000008066400000000000807640000000001E
:10167000008066C0C8000020D000002000000000EC
:10168000000034400000000000002440FC4803C873
:1016900041EC1E0B1FED050B53EC102BFEF7C7FFA3
:1016A00041EC1B0BF74890ED030A10EE101A0846A8
:1016B000FFF75CF841EC1D0B53EC1B2BFEF73FFFD3
:1016C00041EC1C0B53EC1A2BFEF739FF41EC190BC4
:1016D000FFF790F8EB494860EB4890ED020AB5EE51
:1016E000C00AF1EE10FA35DB90ED010A10EE101A87
:1016F0000846FFF73BF841EC190B9FEDE40B53EC68
:10170000102BFEF722FF41EC180BFFF773F8DE49B0
:10171000C861084690ED080AD0ED010A9FEDDD1A78
:1017200000EE810A80ED080A90ED010A10EE101A11
:101730000846FFF71BF841EC190B9FEDD70B53EC54
:10174000102BFEF702FF41EC180BFFF753F8CE49C0
:10175000486235E0CC4890ED010A10EE101A0846B8
:10176000FFF704F841EC190B9FEDCD0B53EC102B58
:10177000FEF7EBFE41EC180BFFF73CF8C249C861DD
:10178000084690ED080AD0ED010A9FEDC21A00EE5E
:10179000810A80ED080A90ED010A10EE101A084641
:1017A000FEF7E4FF41EC190B9FEDBB0B53EC102B44
:1017B000FEF7CBFE41EC180BFFF71CF8B24948626C
:1017C000B04890ED020AB5EEC00AF1EE10FA35DB32
:1017D00090ED010A10EE101A0846FEF7C7FF41EC23
:1017E000190B9FEDAF0B53EC102BFEF7AEFE41EC47
:1017F000180BFEF7FFFFA349C861084690ED080AE1
:10180000D0ED010A9FEDA31A00EE810A80ED080ACF
:1018100090ED010A10EE101A0846FEF7A7FF41EC02
:10182000190B9FED9D0B53EC102BFEF78EFE41EC38
:10183000180BFEF7DFFF9349486235E0914890EDC1
:10184000010A10EE101A0846FEF790FF41EC190B42
:101850009FED8E0B53EC102BFEF777FE41EC180B2F
:10186000FEF7C8FF8749C861084690ED080AD0ED29
:10187000010A9FED881A00EE810A80ED080A90EDBA
:10188000010A10EE101A0846FEF770FF41EC190B22
:101890009FED810B53EC102BFEF757FE41EC180B1C
:1018A000FEF7A8FF77494862774890ED090A10EEE5
:1018B000101A0846FEF75AFF41EC190B724890EDDA
:1018C000070A10EE101A0846FEF750FF41EC1B0BFA
:1018D0006D4890ED030A10EE101A0846FEF746FF19
:1018E00041EC1F0B9FED700B53EC102BFEF72DFE00
:1018F00041EC1E0B9FED6E0B53EC102BFEF725FEFB
:1019000041EC1D0B9FED6C0B53EC102BFEF78FFE83
:1019100041EC1C0B53EC1B2BFEF770FD41EC1A0B3A
:1019200053EC192BFEF76AFD41EC180BFEF762FF32
:1019300055498862534890ED090A10EE101A08467E
:10194000FEF714FF41EC190B4E4890ED070A10EE1C
:10195000101A0846FEF70AFF41EC1B0B494890EDB0
:10196000030A10EE101A0846FEF700FF41EC1F0BA9
:101970009FED530B53EC102BFEF7E7FD41EC1E0BD4
:101980009FED4B0B53EC102BFEF7DFFD41EC1D0BD5
:101990009FED490B53EC102BFEF749FE41EC1C0B5D
:1019A00053EC1B2BFEF72AFD41EC1A0B53EC192BC1
:1019B000FEF724FD41EC180BFEF71CFF314988624D
:1019C0003148D0ED0A0AB0EE600A9FED3F2ADFED04
:1019D0003F1A9FED3F1ADFED3F0A05F0ADFD2A49A2
:1019E00088872848D0ED0A0AB0EE600A9FED3A2AAF
:1019F000DFED3A1A9FED361ADFED360A05F09CFD51
:101A00002049888701221102354801F0A6F80122F9
:101A1000D103344801F0A1F81A48B0F93C0000287D
:101A200005DA012251032F4801F097F80AE0154822
:101A3000B0F93C00002805DD00224FF40051294890
:101A400001F08BF81048B0F93C00002806DA0022BB
:101A50004FF48071244801F080F809E00A48B0F999
:101A60003C00002804DD012211021F4801F075F836
:101A70000449B1F93C00002838DB014637E000009A
:101A8000D0000020500800201008002000000000B6
:101A90000000E03F000000002D431CEBE2364A3F0F
:101AA000000000000000D03FC7BAB88D064848408B
:101AB000CDCCCCCCCCCCFC3F000000000000594089
:101AC0009031772D219F484000B8DA4500B8DAC53B
:101AD0006666E63F6666E6BF00B05A4500B05AC586
:101AE00000000240000C0240000802404142074A48
:101AF00011600749B1F93C00002801DB014600E014
:101B00004142044A1160BDEC108B10BD3C080040FE
:101B1000100800204004014010B5024800F062FDAA
:101B200010BD000038010020014608781038182345
:101B3000B0FBF3F20848805CC865032A05D9086841
:101B40006FF30900001D886503E008686FF3090062
:101B50008865886D70470000E07600080146002027
:101B60008A6A8B69CBB932B1012A0DD0022A03D01F
:101B7000032A10D10EE000BFCB6A03F08073B3F1EB
:101B8000807F00D1012007E0CB6AB3F1C07F00D194
:101B9000012001E000E000BF34E08B69B3F5005F95
:101BA0001AD132B1012A07D0022A03D0032A11D157
:101BB0000AE000BF01200EE0CB6A03F08073B3F1AE
:101BC000807F00D1012006E0CB6AB3F1C07F00D155
:101BD000012000E000BF15E032B1012A05D0022A41
:101BE00004D0032A0CD103E000BF00BF012008E0AD
:101BF000CB6A03F08073B3F1807F00D1012000E055
:101C000000BF00BF704770477047704738B5024645
:101C10000020009000BF92F83C00012801D1022072
:101C200038BD012082F83C0000BF0868092816D999
:101C30001068C0680C780A3C04EB44050724AC40EB
:101C4000A0431468E0600C780A3C04EB4404886804
:101C5000A0401468E46820431468E06013E0106852
:101C600000690C7804EB44050724AC40A0431468D9
:101C700020610C7804EB44048868A040146824694F
:101C80002043146820614868072817D21068406B09
:101C90000C79641E04EB84051F24AC40A043146837
:101CA0006063088880B20C79641E04EB8404A04051
:101CB0001468646B20431468606331E048680D2841
:101CC00017D21068006B0C79E41F04EB84051F2405
:101CD000AC40A04314682063088880B20C79E41FEC
:101CE00004EB8404A0401468246B20431468206330
:101CF00016E01068C06A0C790D3C04EB84051F24C3
:101D0000AC40A0431468E062088880B20C790D3CB6
:101D100004EB8404A0401468E46A20431468E06281
:101D2000194B1A4C1068A04206D10868122803D13A
:101D3000586840F480005860144C1068A0421CD1D0
:101D40000868102802D00868112816D1586840F495
:101D500000005860086810280FD10D4800680D4C2D
:101D6000B0FBF4F000EB80004000009002E000982F
:101D7000401E009000980028F9D100BF002082F892
:101D80003C0000BF00BF4BE70023014000200140A2
:101D9000EC00002040420F007047704770B50446C9
:101DA0000025002620680068C0F3400520684068D0
:101DB000C0F3401695B38EB3206C00F0100018B934
:101DC000206C40F4007020642068806800F040506F
:101DD000E8B9207ED8B92068C06A00F4700020B14C
:101DE0002068806800F4806088B92068406820F02E
:101DF000200021684860206C20F480702064206CF2
:101E000000F4805018B9206C40F001002064204696
:101E1000FFF7C2FF6FF012002168086020680068B9
:101E2000C0F3800520684068C0F3C016E5B3DEB398
:101E3000206C00F0100018B9206C40F400502064B1
:101E40002068806800F4401038BB2068806B00F484
:101E5000401020B12068806800F48060E8B92068F4
:101E6000406800F48060C0B92068806800F040508D
:101E700098B9207E88B92068406820F080002168E9
:101E80004860206C20F480502064206C00F4807046
:101E900018B9206C40F0010020642046FFF7B5FE21
:101EA0006FF00C00216808602068006800F00105F0
:101EB00020684068C0F3801685B17EB12068006854
:101EC00000F0010050B1206C40F4803020642046C6
:101ED00000F052F86FF00100216808602068006887
:101EE000C0F3401520684068C0F380667DB176B1CC
:101EF000606C40F0020060646FF0200021680860B0
:101F00002046FFF74AFF6FF020002168086070BD8F
:101F100070B5044600250CB9012070BD1549A06AB2
:101F2000884200D000BF206C30B9204600F026F86F
:101F30000020606484F83C00206C00F0100088B938
:101F4000206C20F4885040F0020020642046FEF708
:101F50006DFF00206064206C20F0020040F0010062
:101F6000206400E0012500BF002084F83C0000BF91
:101F70002846D2E70100000F7047000010B586B078
:101F80000446142101A8FEF765F92C49206888420F
:101F900051D100BF002000902948006840F48070B3
:101FA000274908600846006800F48070009000BF70
:101FB00000BF00BF0020009021481438006840F0A6
:101FC00001001F49143908600846006800F001004C
:101FD000009000BF00BF302001900320029000203D
:101FE000039001A9174800F0A7FC1748174908609B
:101FF00000204860002115488160C1604FF4806175
:10200000016149004161890081610021C161016272
:10201000416200F007FC08B1FFF7F6FD00BF0B4876
:10202000A063846300BF00221146122000F052FF1B
:10203000122000F03FFF06B010BD0000002001405C
:102040004438024000000240106402403801002081
:1020500070472DE9F05F0446002520684669206836
:10206000D0F80490206887682068D0F80CA0206819
:10207000D0F810B02068D0F8188006F001000028D1
:1020800055D007F00100C0B101202168886007F039
:10209000020018B1204600F08BFA0EE007F00400B1
:1020A00010B145F4006508E007F0080010B145F4F0
:1020B000805502E0204600F07AFA07F48070C8B13B
:1020C0004FF480702168886007F4007018B12046D2
:1020D00000F070FA0EE007F4806010B145F400558E
:1020E00008E007F4006010B145F4804502E02046A6
:1020F00000F05FFA07F48030C8B14FF480302168F7
:10210000886007F4003018B1204600F055FA0EE060
:1021100007F4802010B145F4004508E007F40020E2
:1021200010B145F4803502E0204600F044FA06F094
:10213000080038B10AF0100020B145F400751020F5
:102140002168C86006F0040040B10AF0080028B118
:1021500008202168C860204600F024FA06F002003A
:1021600038B12068C06800F0030010B1204600F0CC
:102170001AFA06F0400038B10BF0100020B145F417
:10218000806510202168086106F0200040B10BF046
:10219000080028B1082021680861204600F004FAF0
:1021A00006F0100038B12068006900F0030010B19B
:1021B000204600F0FAF906F4003040B109F01000B2
:1021C00028B1102021684860204600F0EFF906F49D
:1021D000803040B109F0080028B10820216848602B
:1021E000204600F0EAF906F4004088B309F0040044
:1021F00078B306F4807020B108F0010008B145F012
:10220000010506F4007020B108F0020008B145F0A5
:10221000020506F4806020B108F0040008B145F022
:10222000040506F40060A0B108F0700088B108F061
:102230007000402817D006DC10280BD020280CD0C6
:10224000302819D10CE0502810D0602814D110E0AB
:102250001DE019E045F008050FE045F010050CE021
:1022600045F0200509E045F0400506E045F0800511
:1022700003E045F4807500E000BF00BF206880697E
:1022800020F07000216888610420216848602DB129
:10229000606A284360622046FFF7DAFEBDE8F09FDF
:1022A00070B504460CB9012070BD94F8200010B937
:1022B000204600F0AFF82068006820F00200216896
:1022C000086000F051FC05460DE000F04DFC401B9D
:1022D0000A2808D9606A40F400306062052084F85A
:1022E00020000120E0E72068406800F0020000289C
:1022F000EBD12068006840F001002168086000F020
:1023000033FC05460DE000F02FFC401B0A2808D9DD
:10231000606A40F400306062052084F820000120EB
:10232000C2E72068406800F001000028EBD0207E62
:10233000012806D12068006840F08000216808600C
:1023400005E02068006820F0800021680860607E59
:10235000012806D12068006840F04000216808602C
:1023600005E02068006820F0400021680860A07E39
:10237000012806D12068006840F02000216808602C
:1023800005E02068006820F0200021680860E07EF9
:10239000012806D12068006820F01000216808603C
:1023A00005E02068006840F0100021680860207F88
:1023B000012806D12068006840F008002168086004
:1023C00005E02068006820F0080021680860607F50
:1023D000012806D12068006840F0040021680860E8
:1023E00005E02068006820F0040021680860D4E956
:1023F0000201084321690843616908436168491E75
:1024000008432168C86100206062012084F8200030
:10241000002049E710B586B00446142101A8FDF755
:1024200019FF5B49206888424AD15A480068401C1D
:10243000584908600846006801280FD100BF0020F5
:1024400000905548006840F0007053490860084605
:10245000006800F00070009000BF00BF00BF0020C7
:1024600000904D481038006840F002004A49103989
:1024700008600846006800F00200009000BF00BF3E
:102480004FF440700190022002900020039003203E
:1024900004900920059001A9404800F04DFA00225F
:1024A0001146132000F016FD132000F003FD00225A
:1024B0001146142000F00EFD142000F0FBFC65E036
:1024C00037492068884261D100BF0020009032481F
:1024D000006840F08060304908600846006800F0FD
:1024E0008060009000BF00BF2A480068401C294956
:1024F00008600846006801280FD100BF0020009046
:102500002548006840F000702349086008460068CC
:1025100000F00070009000BF00BF00BF00200090DE
:102520001D481038006840F002001B49103908604F
:102530000846006800F00200009000BF00BF4FF4A2
:10254000405001900220029000200390032004904C
:102550000920059001A9114800F0EEF9002211466A
:102560003F2000F0B7FC3F2000F0A4FC0022114601
:10257000402000F0AFFC402000F09CFC00221146FF
:10258000412000F0A7FC412000F094FC06B010BDF3
:1025900000640040DC00002040380240000402409B
:1025A0000068004070477047704770477047704739
:1025B000704770477047704770477047014691F801
:1025C0003500022803D0802048650120704705208F
:1025D00081F835000868006820F001000A68106082
:1025E0000020F3E7F8B50446002000908C4800680E
:1025F0004FF41651B0FBF1F7A56D2E6894F85C10FE
:1026000008208840304098B12068006800F004003D
:1026100070B12068006820F004002168086094F818
:102620005C1008208840A860606D40F00100606583
:1026300094F85C1001208840304068B120684069FF
:1026400000F0800040B194F85C1001208840A86040
:10265000606D40F00200606594F85C1004208840D2
:10266000304068B12068006800F0020040B194F882
:102670005C1004208840A860606D40F00400606534
:1026800094F85C1010208840304078B320680068CF
:1026900000F0080050B394F85C1010208840A86047
:1026A0002068006800F4802080B12068006800F491
:1026B000002028B9206CC8B12046216C884715E05D
:1026C000A06C98B12046A16C88470FE02068006894
:1026D00000F4807028B92068006820F008002168A4
:1026E0000860206C10B12046216C884794F85C107B
:1026F000202088403040002865D02068006800F025
:10270000100000285FD094F85C1020208840A8605A
:1027100094F83500052828D12068006820F01600BC
:10272000216808602068406920F0800021684861C5
:10273000206C08B9A06C28B12068006820F008005F
:102740002168086094F85C103F208840A86000BFB2
:10275000002084F8340000BF012084F83500206D8B
:1027600010B12046216D8847F8BD2068006800F44C
:10277000802080B12068006800F4002028B9606CD7
:1027800010B12046616C88471DE0E06BD8B120464F
:10279000E16B884717E02068006800F4807068B932
:1027A0002068006820F010002168086000BF002049
:1027B00084F8340000BF012084F83500E06B10B1CC
:1027C0002046E16B8847606D38B3606D00F0010012
:1027D000F0B1052084F835002068006820F0010081
:1027E0002168086000BF0098401C0090B84200D9E2
:1027F00005E02068006800F001000028F3D100BF68
:1028000000BF002084F8340000BF012084F83500A8
:10281000E06C10B12046E16C884700BFA4E70000DF
:10282000EC0000202DE9F0410446002500F09CF961
:10283000074614B90120BDE8F081606A00B100BF0D
:1028400000BF002084F8340000BF022084F8350067
:102850002068006820F00100216808600AE000F0AC
:1028600083F9C01B052805D920206065032084F862
:102870003500E0E72068006800F001000028EED194
:102880002068056821480540D4E901010843E16852
:1028900008432169084361690843A1690843E16964
:1028A0000843216A08430543606A042803D1D4E938
:1028B0000B0108430543206805602068456925F041
:1028C0000705606A0543606A04280DD1A06A0543C4
:1028D000E06A48B12046FFF741F928B14020606521
:1028E000012084F83500A6E7206845612046FFF7FF
:1028F0001BF9064694F85C103F208840B060002029
:102900006065012084F83500002094E73F8010F0D6
:1029100070B5044600F028F906462546681C10B13B
:1029200004480078054400BF00F01EF9801BA8424F
:10293000FAD370BDE8000020F8B502460B4600252A
:10294000002400200021DCE0012606FA01F51E68C3
:1029500006EA0504AC4273D15E68012E08D05E68B9
:10296000022E05D05E68112E02D05E68122E13D1A1
:1029700090684F000326BE40B0434F00DE68BE4063
:1029800030439060506801268E40B0431E79C6F3F4
:1029900000168E4030435060D0684F000326BE4082
:1029A000B0434F009E68BE403043D0605E68022E48
:1029B00002D05E68122E13D1CF0802F1200656F81D
:1029C00027004E07F70E0F26BE40B0434F07FF0EFD
:1029D0001E69BE403043CF0802F1200646F82700AA
:1029E00010684F000326BE40B0431E7906F0030670
:1029F0004F00BE40304310605E6806F08056B6F16E
:102A0000805F7DD100BF00260096404E366846F4B8
:102A100080463E4F3E603E46366806F4804600964D
:102A200000BF00BF3A4E8F0856F827008E07370FB9
:102A30000F26BE40B043374EB24202D1002624E0FA
:102A40005EE0354EB24201D101261EE0334EB24265
:102A500001D1022619E0324EB24201D1032614E020
:102A6000304EB24201D104260FE02F4EB24201D1C6
:102A700005260AE02D4EB24201D1062605E02C4E75
:102A8000B24201D1072600E008268F073F0FBE4063
:102A900030431F4E8F0846F82700264E3068A0436B
:102AA0005E6806F48036B6F5803F00D12043214EA3
:102AB0003060361D3068A0435E6806F40036B6F517
:102AC000003F00D120431B4E361D3060361D30685C
:102AD000A0435E6806F48016B6F5801F00D120433F
:102AE000144E08363060361D3068A0435E6806F428
:102AF0000016B6F5001F00D120430E4E0C36306094
:102B0000491C1029FFF420AFF8BD000044380240F2
:102B10000838014000000240000402400008024062
:102B2000000C024000100240001402400018024055
:102B3000001C0240003C0140024613690B400BB1EF
:102B4000012000E00020704742690A408A4202D119
:102B50000A04826100E0816170470AB1816101E08D
:102B60000B04836170470000014800687047000053
:102B7000E000002070B504460CB9012070BD94F847
:102B80003D0028B9002084F83C00204600F0DAF827
:102B9000242084F83D002068006820F001002168AE
:102BA00008602068006840F40040216808602068E0
:102BB000006820F400402168086000F0A5FA05468E
:102BC0005C496068884206D85B48854201D2012092
:102BD00007E0002005E05948854201D2012000E0CD
:102BE0000020012800D1C9E75548B5FBF0F6206860
:102BF000406820F03F003043216848604D496068DC
:102C0000884201D8701C07E04FF4967070434FF46F
:102C10007A71B0FBF1F0401C2168096A21F03F0194
:102C200008432168086243496068884214D8681ED6
:102C300061684900B0FBF1F0401CC0F30B000428B0
:102C400001D204203DE0681E61684900B0FBF1F04C
:102C5000401CC0F30B0034E0A06838B9681E6168FE
:102C600001EB4101B0FBF1F0401C0AE0681E616815
:102C700001EBC10202EB0111B0FBF1F0401C40F48A
:102C80008040C0F30B0008B901201AE0A06848B9E1
:102C9000681E616801EB4101B0FBF1F0401CC0F31C
:102CA0000B000CE0681E616801EBC10202EB011130
:102CB000B0FBF1F0401CC0F30B0040F4804040F446
:102CC00000402168C9694CF6FF72914308432168AE
:102CD000C861D4E9070108432168096821F0C001EF
:102CE000084321680860D4E9031008432168896813
:102CF00048F2FF329143084321688860D4E9050116
:102D000008432168C96821F0FF0108432168C860B1
:102D10002068006840F001002168086000202064FD
:102D2000202084F83D000020206384F83E0000BF8E
:102D300024E70000A086010080841E0000093D00F9
:102D400040420F0010B586B00446142101A8FDF7DB
:102D500081FA1B49206888422FD100BF00200090D3
:102D60001848006840F002001649086008460068EC
:102D700000F00200009000BF00BFC02001901220B0
:102D8000029001200390032004900420059001A9E3
:102D90000D48FFF7D1FD00BF00200090094810301A
:102DA000006840F4001007491031086008460068C8
:102DB00000F40010009000BF00BF06B010BD00007E
:102DC00000540040303802400004024003480068CC
:102DD000034909780844014908607047E000002071
:102DE000E800002010B50D48006840F400700B4961
:102DF00008600846006840F4806008600846006883
:102E000040F480700860032000F0A2F8002000F079
:102E100007F800F02BF8002010BD0000003C024035
:102E200070B504460E4800784FF47A71B1FBF0F0AB
:102E30000C490968B1FBF0F5284600F0ABFC08B17D
:102E4000012070BD102C07D200222146501E00F038
:102E500041F80548046001E00120F2E70020F0E7B6
:102E6000E8000020EC000020E400002008B500BFCE
:102E7000002000900E48006840F480400C49086033
:102E80000846006800F48040009000BF00BF00BF0B
:102E900000200090081F006840F08050091F086063
:102EA0000846006800F08050009000BF00BF08BDD9
:102EB0004438024001460846002809DB00F01F03A1
:102EC00001229A4043099B0003F1E023C3F800214B
:102ED00000BF70472DE9F05F80460D46164600277B
:102EE00002F034FD074639462A46334601F0070012
:102EF000C0F1070ABAF1040F02D94FF0040A01E049
:102F0000C0F1070AD14600F1040ABAF1070F02D254
:102F10004FF0000A01E0A0F1030AD4464FF0010A85
:102F20000AFA09FAAAF1010A0AEA020A0AFA0CFAEA
:102F30004FF0010B0BFA0CFBABF1010B0BEA030B8F
:102F40004AEA0B042146404602F008FDBDE8F09F26
:102F500000BF00F00702064B19684FF6FF03194047
:102F6000044B0B4343EA0221014B196000BF704739
:102F70000CED00E00000FA0570B504460D460CB9F2
:102F8000012070BD5848006800F00F00A84209D227
:102F900055490D700846006800F00F00A84201D0A6
:102FA0000120EEE7207800F0020002281DD12078F1
:102FB00000F00400042805D14C48006840F4E050BB
:102FC0004A490860207800F00800082805D14748E1
:102FD000006840F46040454908604448006820F0BB
:102FE000F000A168084341490860207800F0010022
:102FF000A8B36068012807D13C4808380068C0F3CE
:103000004040B8B90120BCE76068022802D060687F
:10301000032807D1354808380068C0F3406048B934
:103020000120AEE7314808380068C0F3400008B915
:103030000120A6E72D48006820F0030061680843DE
:103040002A490860FFF790FD064609E0FFF78CFD6E
:10305000801B41F28831884202D9032091E707E0C2
:103060002248006800F00C006168B0EB810FEDD1E0
:103070001D48006800F00F00A84209D91A490D70D8
:103080000846006800F00F00A84201D0012078E750
:10309000207800F00400042807D11448006820F4C8
:1030A000E050E168084311490860207800F008000A
:1030B000082808D10D48006820F46040216940EAE2
:1030C000C1000A49086000F03FF808490968C1F3E7
:1030D0000311074A515CC840064908600648006869
:1030E000FFF79EFE00204CE7003C024008380240FB
:1030F000E8760008EC000020E400002001480068A9
:1031000070470000EC00002000B5FFF7F7FF04490E
:103110000968C1F38221034A515CC84000BD000028
:1031200008380240F876000800B5FFF7E7FF0449C9
:103130000968C1F34231034A515CC84000BD000038
:1031400008380240F87600082DE9F04700240025F1
:103150000026A1462548006800F00C0020B1042894
:1031600005D008283AD105E0DFF8849039E0DFF88F
:10317000849036E01D48001F006800F03F041B48A3
:10318000001F006800F4800078B11A481749091F31
:103190000968C1F38811A0FB017001462246002393
:1031A0003846FDF70DF805460EE011480F49091F96
:1031B0000968C1F38811A0FB017001462246002373
:1031C0003846FCF7FDFF05460848001F0068C0F3BD
:1031D0000140401C4600B5FBF6F902E0DFF8109014
:1031E00000BF00BF4846BDE8F08700000838024035
:1031F0000024F40000127A00F8B504460CB901204E
:10320000F8BD207800F00100002874D0F94800686B
:1032100000F00C0004280DD0F648006800F00C0007
:10322000082813D1F348001F006800F48000B0F5AF
:10323000800F0BD1EF4808380068C0F340400028E9
:1032400059D06068002856D10120D9E700BF6068D6
:10325000B0F5803F08D1E7480838006840F4803076
:10326000E449083908601EE06068B0F5A02F0DD170
:10327000E0480838006840F48020DE4908390860DA
:103280000846006840F4803008600CE0D9480838EF
:10329000006820F48030D749083908600846006883
:1032A00020F48020086000BF606890B1FFF75CFCEC
:1032B000054606E0FFF758FC401B642801D90320AF
:1032C0009EE7CC4808380068C0F340400028F1D0A1
:1032D00011E0FFF749FC054606E0FFF745FC401BFF
:1032E000642801D903208BE7C24808380068C0F37E
:1032F00040400028F1D1207800F0020002285FD180
:10330000BC48006800F00C0058B1BA48006800F0F2
:103310000C0008281CD1B748001F006800F480008A
:10332000B0B9B44808380068C0F3400020B1E06884
:10333000012801D0012063E7AE480838006820F07A
:10334000F800216940EAC100AA490839086037E05D
:10335000E06800B30120A8490860FFF705FC0546B6
:1033600006E0FFF701FC401B022801D9032047E7D4
:10337000A04808380068C0F340000028F1D09D48FC
:103380000838006820F0F800216940EAC100994936
:103390000839086014E0002097490860FFF7E4FB53
:1033A000054606E0FFF7E0FB401B022801D9032099
:1033B00026E7904808380068C0F340000028F1D1A3
:1033C000207800F0080008282CD16069A8B10120FD
:1033D0008A490860FFF7C8FB054606E0FFF7C4FB13
:1033E000401B022801D903200AE782486C3000689C
:1033F000C0F340000028F1D014E000207F490860AD
:10340000FFF7B2FB054606E0FFF7AEFB401B0228C4
:1034100001D90320F4E677486C300068C0F340001F
:103420000028F1D1207800F00400042870D1002792
:1034300070483830006800F0805090B900BF00201C
:1034400000906C483830006840F08050694938314D
:1034500008600846006800F08050009000BF00BF80
:1034600001276748006800F48070B0B964480068BC
:1034700040F4807062490860FFF776FB054606E07D
:10348000FFF772FB401B022801D90320B8E65C4815
:10349000006800F480700028F2D000BFA068012806
:1034A00008D154486830006840F001005149683143
:1034B00008601DE0A06805280DD14E4868300068FE
:1034C00040F004004B49683108600846006840F04D
:1034D000010008600CE047486830006820F00100F7
:1034E0004449683108600846006820F0040008601C
:1034F00000BFA068A8B1FFF737FB054609E0FFF75A
:1035000033FB401B41F28831884202D9032077E621
:1035100026E0384868300068C0F340000028EED04C
:1035200013E0FFF721FB054608E0FFF71DFB401BFA
:1035300041F28831884201D9032061E62D48683084
:103540000068C0F340000028EFD1012F07D12948BF
:103550003830006820F0805026493831086000BFBC
:10356000A069002845D02348006800F00C00082816
:103570005DD0A069022845D100201F490866FFF7E9
:10358000F3FA054606E0FFF7EFFA401B022801D9DF
:10359000032035E6174808380068C0F3406000286B
:1035A000F1D1D4E907010843616A40EA811101229F
:1035B000A06AC2EB500041EA00412C20005D41EAC4
:1035C00000600C49091F086001200B490866FFF7DD
:1035D000CBFA054606E0FFF7C7FA401B022801D9DF
:1035E00003200DE6034808380068C0F34060002857
:1035F000F1D03FE00838024000004742800E4742C9
:103600000070004000201C490866FFF7ADFA05462F
:1036100006E0FFF7A9FA401B022801D90320EFE5D5
:1036200016480068C0F340600028F2D122E0A0698B
:10363000012800D1E4E511480830066806F480014D
:10364000E069814214D106F03F01206A81420FD126
:1036500047F6C0703040616A884209D106F44031B3
:10366000A06A814204D106F07061E06A814201D013
:103670000120C5E50020C3E50000474200380240B4
:1036800010B504460CB9012010BD606A00B900BF36
:103690000021A16294F8510028B9002084F850005C
:1036A000204600F033F8022084F8510020680068BA
:1036B00020F0400021680860D4E901010843E16876
:1036C00008432169084361690843218B01F40071B3
:1036D0000843E1690843216A0843A16A0843216855
:1036E00008600421A06901EA1040616A084321686A
:1036F00048602068C06920F400602168C86100202B
:103700006065012084F851000020BDE710B586B047
:103710000446142101A8FCF79DFD1B49206888423E
:103720002FD100BF002000901848006840F480505E
:10373000164908600846006800F48050009000BFF9
:1037400000BF00BF0020009010481438006840F00F
:1037500002000E49143908600846006800F00200B3
:10376000009000BF00BF382001900220029000208E
:103770000390032004900520059001A90448FFF759
:10378000DBF806B010BD00000030014044380240B4
:103790000004024070B504462546681EB0F1807FE3
:1037A00001D301200FE0681E4FF0E02148610F2196
:1037B0004FF0FF3002F0D2F800204FF0E021886196
:1037C00007200861002070BD7047704710B50346A0
:1037D000002200BF93F83C00012801D1022010BD57
:1037E000012083F83C0000BF22F0FF00CC6840EAD3
:1037F000040222F440708C6840EA040222F48060E3
:103800004C6840EA040222F400600C6840EA0402BA
:1038100022F480500C6940EA040222F400504C6902
:1038200040EA040222F48040CC6940EA04021868AD
:10383000426400BF002083F83C0000BF00BFCEE719
:1038400030B502460B4600BF92F83C00012801D17A
:10385000022030BD012082F83C0000BF022082F827
:103860003D00106844681068816824F0700418688E
:10387000044310684460184D1068A8421BD01068BB
:10388000B0F1804F17D0154D1068A84213D0144DD9
:103890001068A8420FD0134D1068A8420BD0124DEB
:1038A0001068A84207D0114D1068A84203D0104DEF
:1038B0001068A84205D121F08001586801431068C2
:1038C0008160012082F83D0000BF002082F83C00AA
:1038D00000BF00BFBDE70000000001400004004041
:1038E00000080040000C004000040140004001407E
:1038F0000018004010B504460CB9012010BD94F822
:103900003D0028B9002084F83C00204600F00CF867
:10391000022084F83D00211D206801F0E9FB012010
:1039200084F83D000020E9E738B504461D492068C9
:10393000884218D100BF002000901B48006840F06A
:103940002000194908600846006800F02000009037
:1039500000BF00BF002211463720FFF7BBFA372017
:10396000FFF7A8FA1DE011492068884219D100BF6D
:10397000002000900C48001D006840F400300A4907
:10398000091D08600846006800F40030009000BF80
:1039900000BF002211461920FFF79CFA1920FFF7FB
:1039A00089FA38BD0014004040380240004401400C
:1039B00001460868C06840F001000B68D8600868DC
:1039C000806800F00702062A05D00868006840F009
:1039D00001000B681860002070472DE9F041044693
:1039E0000D4614B90120BDE8F08194F83D0028B9D6
:1039F000002084F83C00204600F046F8022084F8BD
:103A00003D002068806844F207018843216888608F
:103A1000211D206801F06CFB2068D0F80880206828
:103A200086692068076A286840EA080840F203307F
:103A30008643A969A86840EA0120064340F60C4085
:103A400086434FF2F0008643E969E86840EA0120C6
:103A5000064328690001296A40EA0130064327F03D
:103A6000220727F088076969686840EA0110074360
:103A70002068C0F8088020688661206807620120FD
:103A800084F83D000020AEE710B586B0044614214E
:103A900001A8FCF7DFFB48492068884238D100BF05
:103AA000002000904548006840F00100434908604C
:103AB0000846006800F00100009000BF00BF00BF92
:103AC000002000903D481438006840F010003B4949
:103AD000143908600846006800F01000009000BF2C
:103AE00000BF4FF428500190022002900020039064
:103AF00004900120059001A93148FEF71DFF002226
:103B000011461920FFF7E6F91920FFF7D3F950E025
:103B10002C49206888424CD100BF002000902748E3
:103B2000001F006840F002002449091F0860084691
:103B3000006800F00200009000BF00BF00BF00203E
:103B400000901E481438006840F001001B491439E9
:103B500008600846006800F00100009000BF00BF48
:103B600000BF002000900846006840F00200086096
:103B70000846006800F00200009000BF00BFC020AF
:103B800001900220029000200390049002200590F2
:103B900001A90D48FEF7D0FE0120019002200290FD
:103BA0000020039004900220059001A90748FEF729
:103BB000C3FE06B010BD00000000014044380240C2
:103BC00000100240000400400000024000040240D7
:103BD00030B504460D4615B1042D0CD105E0012287
:103BE0000021206801F0F0FA10E001220421206891
:103BF00001F0EAFA0AE001220021206801F0E4FA6B
:103C000001220421206801F0DFFA00BF00BF206814
:103C1000006840F0010021680860002030BD704756
:103C200010B5044620680069C0F34000D8B1206890
:103C3000C068C0F34000B0B16FF0020021680861B5
:103C4000012020772068806900F0030018B1204629
:103C5000FFF7E5FF05E0204600F006F9204600F0FA
:103C6000D5F90020207720680069C0F38000D8B122
:103C70002068C068C0F38000B0B16FF00400216814
:103C80000861022020772068806900F4407018B134
:103C90002046FFF7C4FF05E0204600F0E5F8204687
:103CA00000F0B4F90020207720680069C0F3C0005C
:103CB000D8B12068C068C0F3C000B0B16FF0080090
:103CC00021680861042020772068C06900F00300A3
:103CD00018B12046FFF7A3FF05E0204600F0C4F826
:103CE000204600F093F90020207720680069C0F397
:103CF0000010D8B12068C068C0F30010B0B16FF0F8
:103D0000100021680861082020772068C06900F44D
:103D1000407018B12046FFF782FF05E0204600F012
:103D2000A3F8204600F072F900202077206800698F
:103D300000F0010058B12068C06800F0010030B107
:103D40006FF0010021680861204600F08DF92068BD
:103D50000069C0F3C01058B12068C068C0F3C0103B
:103D600030B16FF08000216808612046FFF72CFD1C
:103D700020680069C0F3801058B12068C068C0F3A3
:103D8000801030B16FF0400021680861204600F0DB
:103D900021FA20680069C0F3401058B12068C0685B
:103DA000C0F3401030B16FF0200021680861204658
:103DB000FFF70BFD10BD000010B586B004461421BE
:103DC00001A8FCF747FA2349206888421ED100BFAA
:103DD000002000902048006840F008001E4908605C
:103DE0000846006800F00800009000BF00BF4FF4D4
:103DF0008040019002200290002003900490022055
:103E0000059001A91548FEF797FD20E014492068A8
:103E100088421CD100BF002000900F48006840F08D
:103E200004000D4908600846006800F00400009096
:103E300000BF00BF481501900220029000200390AF
:103E400004900320059001A90648FEF775FD06B011
:103E500010BD00000008004030380240000C024055
:103E60000004014000080240704770B504460D464A
:103E7000164600BF94F83C00012801D1022070BD15
:103E8000012084F83C0000BF022084F83D0036B1D8
:103E9000042E1BD0082E31D00C2E5ED145E02946D1
:103EA000206801F0A3F92068806940F008002168CB
:103EB00088612068806920F004002168886120689A
:103EC0008069296908432168886147E0294620689C
:103ED00001F0C4F92068806940F4006021688861BD
:103EE0002068806920F4806021688861206880698A
:103EF000296940EA0120216888612FE0294620686D
:103F000001F0EAF92068C06940F008002168C86142
:103F10002068C06920F004002168C8612068C06979
:103F2000296908432168C86118E02946206801F022
:103F30000FFA2068C06940F400602168C8612068F9
:103F4000C06920F480602168C8612068C06929695F
:103F500040EA01202168C86100E000BF00BF0120E5
:103F600084F83D0000BF002084F83C0000BF00BF83
:103F700085E710B504460CB9012010BD94F83D004A
:103F800028B9002084F83C00204600F00DF80220FB
:103F900084F83D00211D206801F0AAF8012084F872
:103FA0003D000020E9E7000008B5154A016891428C
:103FB0000FD100BF002100911249096841F00401AE
:103FC000104A11601146096801F00401009100BF18
:103FD00015E00D4A0168914211D100BF0021009106
:103FE0000849091D096841F00201064A121D1160C5
:103FF0001146096801F00201009100BF00BF08BD31
:1040000000080040403802400004014070470000B2
:1040100070B504460E4601223146206801F0D4F8FE
:104020000F492068884203D00E492068884201D198
:10403000012000E0002028B12068406C40F40040DE
:10404000216848642068806800F00705062D05D0C7
:104050002068006840F0010021680860002070BD01
:104060000000014000040140444A0168914273D1BC
:1040700043490968491C424A116042490968491C80
:10408000404A116040490968491C3F4A11603F4954
:104090000968491C3D4A11603D490968491C3C4A70
:1040A00011603C490968491C3A4A11603A4909685B
:1040B000491C394A116039490968491C374A11605D
:1040C00034490968012907DB0121354A1180354A45
:1040D000118000212F4A11602C490968032905DB52
:1040E0000121314A11800021284A116028490968BC
:1040F000052902DB0021264A1160214909680A29A5
:1041000009DB0121294A1180294A1180294A11809D
:1041100000211B4A116021490968142905DB01218E
:10412000254A118000211D4A116016490968642939
:1041300005DB0121214A11800021124A1160124938
:104140000968B1F57A7F18DB01211D4A1180002131
:104150000D4A116011E0FFE71A4A016891420CD143
:1041600019490968491C184A116018490968491C0D
:10417000164A11600121164A11707047004401402F
:1041800030000020380000203C00002028000020E3
:104190002C00002024000020080000203400002013
:1041A0000C0000200E000020100000201200002053
:1041B00014000020160000201C0000201800002021
:1041C0001A000020001400402000002004000020FD
:1041D00000000020704770472DE9F0470446206832
:1041E00005682068C668206847694FF00008C14626
:1041F00005F00F08B8F1000F0AD105F0200038B122
:1042000006F0200020B1204601F006F9BDE8F08755
:10421000B8F1000F72D007F0010018B906F49070E1
:1042200000286BD005F0010030B106F4807018B1A1
:10423000E06B40F00100E06305F0040030B107F0EE
:10424000010018B1E06B40F00200E06305F00200ED
:1042500030B107F0010018B1E06B40F00400E063FA
:1042600005F0080048B106F0200010B907F0010081
:1042700018B1E06B40F00800E063E06B70B305F04C
:10428000200028B106F0200010B1204601F0C4F84B
:1042900020684069C0F38019E06B00F0080010B995
:1042A000B9F1000F23D0204601F096F8206840694C
:1042B00000F04000402816D12068406920F04000FE
:1042C00021684861606B50B11748616B0865606B8D
:1042D000FEF774F910B1606B016D88470CE0204661
:1042E000FFF779FF08E02046FFF775FF04E020465E
:1042F000FFF771FF0020E06388E7FFE705F080002B
:1043000030B106F0800018B1204601F0CDFA7DE70B
:1043100005F0400030B106F0400018B1204601F031
:104320006BF873E700BF71E7C553000810B504468A
:104330000CB9012010BDA06900B100E000BF94F8E5
:10434000390028B9002084F83800204600F028F809
:10435000242084F839002068C06820F400502168C7
:10436000C860204601F0ACF82068006920F4904055
:10437000216808612068406920F02A0021684861AE
:104380002068C06840F400502168C8600020E063E5
:10439000202084F8390084F83A000020CAE70000A1
:1043A00010B586B00446142101A8FBF753FF6B49F2
:1043B0002068884239D100BF00200090684800681A
:1043C00040F40020664908600846006800F40020B8
:1043D000009000BF00BF00BF002000906048103870
:1043E000006840F004005E49103908600846006823
:1043F00000F00400009000BF00BF4FF44060019047
:1044000002200290012003900320049008200590D0
:1044100001A95448FEF790FA002211463420FEF715
:1044200059FD3420FEF746FD95E04F49206888424B
:1044300055D100BF002000904948006840F480102A
:10444000474908600846006800F48010009000BFEB
:1044500000BF00BF0020009041481038006840F0C5
:1044600004003F49103908600846006800F0040065
:10447000009000BF00BF00BF002000900846006809
:1044800040F0080008600846006800F0080000904E
:1044900000BF00BF88140190022002900120039009
:1044A000032004900820059001A92E48FEF744FA45
:1044B0000420019002200290012003900320049028
:1044C0000820059001A92948FEF736FA0022114676
:1044D0003520FEF7FFFC3520FEF7ECFC3BE02449DD
:1044E0002068884237D100BF002000901C48006837
:1044F00040F400301A4908600846006800F40030B3
:10450000009000BF00BF00BF00200090144810388A
:10451000006840F001001249103908600846006840
:1045200000F00100009000BF00BF0C2001900220AD
:10453000029001200390032004900720059001A918
:104540000C48FEF7F9F9002211462620FEF7C2FCBE
:104550002620FEF7AFFC06B010BD0000004C004066
:10456000403802400008024000500040000C024069
:10457000004400400000024010B5034693F83A00A2
:1045800020282FD101B10AB9012010BD00BF93F836
:104590003800012801D10220F7E7012083F8380014
:1045A00000BF99629A85DA850020D863222083F8BB
:1045B0003A0000BF002083F8380000BF1868C068C8
:1045C00040F480701C68E0601868406940F00100A9
:1045D0001C6860611868C06840F020001C68E060DA
:1045E0000020D2E70220D0E710B504464C492068ED
:1045F000884232D14B4890F8CA2090F8C81090F801
:10460000C800401C474B83F8C8001846425490F835
:10461000CA003C2807D100204349487001201946B0
:1046200081F8C80010E03F4890F8CA003E280BD13E
:1046300000203C4991F8C8103A4A5054114681F87C
:10464000C80001203849487000203849087001220C
:104650003449CA313648FFF78FFF3649206888420F
:104660005CD1354890F8CC1090F8CA2090F8CA0078
:10467000401CC3B2304880F8CA30801C8154801E70
:104680008078BB2820D12C4890F8CA00022837DB5C
:10469000294890F8CA10C078801C814230DB264837
:1046A00090F8CA1080F8CB10002180F8CA100121C0
:1046B00080F8CD1000202049087008464078042872
:1046C0001ED1052048701BE01B488078EE2813D1CE
:1046D000032019490870084690F8CA0002280FDB29
:1046E000084690F8CA1080F8CB10002180F8CA1054
:1046F000012180F8CD1003E000210F4880F8CA1096
:104700004FF480410D48FEF71FFA0020074908705A
:1047100001220949CC310A48FFF72EFF10BD0000E5
:10472000004C0040D4040020040800204000002079
:104730001404002000500040180B00200008024024
:104740005404002010B5034693F83900202823D1E3
:1047500001B10AB9012010BD00BF93F8380001284B
:1047600001D10220F7E7012083F8380000BF196269
:104770009A84DA840020D863212083F8390000BFAE
:10478000002083F8380000BF1868C06840F080003F
:104790001C68E0600020DEE70220DCE710B504467C
:1047A0003149206888421CD1304890F8C8002F4910
:1047B00091F8C910884204DB01202C4981F8CA0015
:1047C00050E02A4890F8C82090F8C800401C274BB9
:1047D00083F8C8001846111801222046FFF7B2FFDF
:1047E00040E02349206888421CD1224890F8C80044
:1047F000204991F8C910884204DB01201D4981F845
:10480000CA002FE01B4890F8C82090F8C800401C50
:10481000184B83F8C8001846111801222046FFF7EC
:1048200091FF1FE01449206888421BD1134890F87B
:10483000C800124991F8C910884204DB01200F49D1
:1048400081F8CA000EE00D4890F8C82090F8C80022
:10485000401C0A4B83F8C800184611180122204654
:10486000FFF770FF10BD0000004C00406C060020F8
:1048700000500040A0050020004400403807002000
:1048800000BFFEE71FB5002000900190029003904A
:104890002448254908604FF48030486000212248B0
:1048A0008160012101610176002180F82010C16240
:1048B0001E4981620021C1600421C161012180F88B
:1048C000301000214161FDF723FB08B1FDF79CF991
:1048D00004200090012001900020029069461248B7
:1048E000FDF794F908B1FDF78FF9022001906946B0
:1048F0000D48FDF78BF908B1FDF786F9032001900B
:1049000069460948FDF782F908B1FDF77DF90420F1
:10491000019069460448FDF779F908B1FDF774F98B
:104920001FBD000000200140F00000200100000F2A
:1049300010B50E480E4908600420486000210C485C
:104940008160C1604FF4502101614FF4A0014161C9
:104950000021017641768176C17601774177FDF7B6
:104960009FFC08B1FDF750F910BD00000064004045
:104970009801002010B50E480E49086004204860D8
:1049800000210C488160C1604FF4502101614FF457
:10499000A00141610021017641768176C1760177DF
:1049A0004177FDF77DFC08B1FDF72EF910BD000041
:1049B00000680040C001002008B500BF0020009042
:1049C0000A48006840F4800008490860084600680A
:1049D00000F48000009000BF00BF00221146382084
:1049E000FEF778FA3820FEF765FA08BD3038024045
:1049F00000B587B0142102A8FBF72CFC00BF0020F3
:104A000001906A48006840F0100068490860084654
:104A1000006800F01000019000BF00BF00BF002040
:104A200001900846006840F00400086008460068ED
:104A300000F00400019000BF00BF00BF0020019003
:104A40000846006840F0800008600846006800F0F2
:104A50008000019000BF00BF00BF00200190084609
:104A6000006840F0010008600846006800F001009E
:104A7000019000BF00BF00BF002001900846006801
:104A800040F0020008600846006800F00200019053
:104A900000BF00BF00BF002001900846006840F042
:104AA000080008600846006800F00800019000BF98
:104AB00000BF00224EF20E113D48FEF74EF80022D4
:104AC00041F602113B48FEF748F800224FF44041FE
:104AD0003948FEF742F800224BF688013748FEF7C6
:104AE0003CF84CF28410029000200390049002A93C
:104AF0003348FDF721FF4EF20E1002900120039083
:104B000000200490059002A92948FDF715FFE12037
:104B1000029000200390049002A92548FDF70CFFA5
:104B200041F60210029001200390002004900590AD
:104B300002A92048FDF700FF40F604400290002043
:104B40000390049002A91C48FDF7F6FE4FF4404084
:104B500002900120039000200490059002A91648BD
:104B6000FDF7EAFE4FF44070029000200390012010
:104B7000049002A91148FDF7DFFE4BF68800029071
:104B80000120039000200490059002A90B48FDF736
:104B9000D3FE4FF4C060029000200390049002A95D
:104BA0000448FDF7C9FE07B000BD000030380240E0
:104BB000000802400000024000040240000C0240D5
:104BC0000010024010B50B480B4908600B484860C4
:104BD000002109488160C1604FF4804101610021DA
:104BE00041618161C1610162FDF7C4FF08B1FDF758
:104BF0000BF810BD00540040E8010020A086010021
:104C000010B50E480E4908604FF4827048600021CC
:104C10000B488160C160016141614FF400718161A5
:104C20001821C16100210162416281620A21C162D1
:104C3000FEF726FD08B1FCF7E7FF10BD003001408C
:104C40003C02002010B50A480A49086040F247308B
:104C50004860002107488160C721C16000210161CF
:104C60008161FEF747FE08B1FCF7CEFF10BD0000E2
:104C700000440140D403002000B58BB0242102A8D9
:104C8000FBF7E8FA002000900190184818490860E6
:104C9000002048600021164881604FF6FF71C16016
:104CA0000021016141618161012002900020039097
:104CB00001200490002005900690079001200890A4
:104CC000002009900A9002A90948FEF786FE08B163
:104CD000FCF79AFF00200090019069460448FEF717
:104CE000AFFD08B1FCF790FF0BB000BD0000014024
:104CF0009402002000B58BB0242102A8FBF7AAFA89
:104D00000020009001901848184908600020486071
:104D10000021164881604FF6FF71C16000210161DA
:104D20008161012002900020039001200490002066
:104D3000059006900220079001200890002009901D
:104D40000A9002A90948FEF748FE08B1FCF75CFF8B
:104D500000200090019069460448FEF771FD08B1FB
:104D6000FCF752FF0BB000BD00040040D40200204D
:104D700000B589B00020079008901C216846FBF719
:104D800069FA184818490860002048600021164850
:104D9000816040F6AB51C160002101618161FFF784
:104DA000E8F808B1FCF730FF00200790089007A949
:104DB0000D48FEF745FD08B1FCF726FF6020009086
:104DC0000020019002900490082269460648FFF7EF
:104DD0004CF808B1FCF718FF0348FEF7EDFF09B0E7
:104DE00000BD0000000800401403002000B591B091
:104DF00000200F9010901C2108A8FBF72BFA20210F
:104E00006846FBF727FA22482249086000204860DC
:104E100000212048816041F65731C16000210161C5
:104E200041618161FFF7A5F808B1FCF7EDFE0020B4
:104E30000F9010900FA91748FEF702FD08B1FCF77C
:104E4000E3FE60200890002009900A900C900D90DD
:104E50000E900C2208A90F48FFF707F808B1FCF7DD
:104E6000D3FE0020009001900290039004904FF434
:104E7000005005900020079069460648FEF7A6FC02
:104E800008B1FCF7C1FE0348FEF796FF11B000BD64
:104E9000000401409403002010B50B480B49086042
:104EA0004FF4E1304860002108488160C160016131
:104EB0000C21416100218161C161FFF737FA08B11E
:104EC000FCF7A2FE10BD0000004C004014040020BE
:104ED00010B50B480B4908604FF4E13048600021E1
:104EE00008488160C16001610C214161002181613C
:104EF000C161FFF71BFA08B1FCF786FE10BD000088
:104F0000005000405404002010B50B480B490860C5
:104F10004FF4E1304860002108488160C1600161C0
:104F20000C21416100218161C161FFF7FFF908B1E6
:104F3000FCF76AFE10BD000000440040940400200D
:104F400000BFFEE7704770477047000070B5054628
:104F50000C46114890F8CA00E8B1224629460E488E
:104F6000FBF75FF900200C4981F8C800084680F87B
:104F7000C94090F8C82090F8C800401C0B4683F840
:104F8000C8000846111801220448FFF7DBFB002087
:104F9000014981F8CA0070BDA0050020540400201A
:104FA00010B5114890F8CA00E0B100200E4981F810
:104FB000C8000846FBF759F90B4981F8C9000846B3
:104FC00090F8C82090F8C800401C0B4683F8C80031
:104FD0000846111801220548FFF7B4FB00200249DA
:104FE00081F8CA0010BD000038070020940400209A
:104FF00010B5FDF7EBFE10BD00B593B0302107A84A
:10500000FBF728F9142102A8FBF724F900BF0020C0
:1050100001902448006840F080502249086008460A
:10502000006800F08050019000BF00BF00BF00206A
:1050300001901D48006840F480401B490860084604
:10504000006800F48040019000BF00BF012007907D
:105050000004089002200D9041050E9104210F914B
:10506000A8211091022111910421129107A8FEF7A5
:10507000C3F808B1FCF7C8FD0F200290022003908E
:10508000002004904FF4A05005904FF480500690FB
:10509000052102A8FDF770FF08B1FCF7B5FD13B0BC
:1050A00000BD000040380240007000400548006824
:1050B00040F47000034908604FF0006001498039F6
:1050C0000860704788ED00E010B50348FEF7A8FDC2
:1050D0000248FEF7A5FD10BD94020020D403002075
:1050E00010B50248FEF79CFD10BD000054030020DF
:1050F00010B50268294B98420ED0B0F1804F0BD00A
:10510000274B984208D0274B984205D0264B98420F
:1051100002D0264B984203D122F070024B681A430A
:105120001E4B984220D0B0F1804F1DD01C4B9842AE
:105130001AD01C4B984217D01B4B984214D01B4BD3
:10514000984211D01A4B98420ED01A4B98420BD06D
:10515000194B984208D0194B984205D0184B9842E9
:1051600002D0184B984203D122F44072CB681A4304
:1051700022F080034C6943EA040202608B68C36238
:105180000B688362054B984202D0084B984201D1CC
:105190000B6903630123436110BD0000000001405F
:1051A0000004004000080040000C004000040140E2
:1051B0000040014000440140004801400018004008
:1051C000001C00400020004030B501F01F05012404
:1051D00004FA05F3046A9C430462046A01F01F05A3
:1051E00002FA05F52C43046230BD000030B5056AB3
:1051F00025F001050562026A4368846924F07004A1
:1052000024F003040D682C4322F002028D682A4327
:10521000104DA84200D103E00F4DA84206D100BFB7
:1052200022F00802CD682A4322F00402094DA84268
:1052300002D0094DA84207D123F4807323F40073F0
:105240004D692B438D692B43436084614D684563F1
:10525000026230BD000001400004014030B5056A23
:1052600025F010050562026A4368846924F4E0446D
:1052700024F440740D6844EA052422F020028D686D
:1052800042EA0512124DA84200D103E0114DA84296
:1052900007D100BF22F08002CD6842EA051222F059
:1052A00040020B4DA84202D00A4DA84209D123F476
:1052B000806323F400634D6943EA85038D6943EA03
:1052C0008503436084614D688563026230BD0000E0
:1052D000000001400004014030B5056A25F48075E6
:1052E0000562026A4368C46924F0700424F0030470
:1052F0000D682C4322F400728D6842EA0522124D9B
:10530000A84200D103E0114DA84207D100BF22F40A
:105310000062CD6842EA052222F480620A4DA8426A
:1053200002D00A4DA84209D123F4805323F400533C
:105330004D6943EA05138D6943EA05134360C4616F
:105340004D68C563026230BD0000014000040140A9
:1053500030B5056A25F480550562036A4468C26960
:1053600022F4E04222F440720D6842EA052223F45E
:1053700000538D6843EA0533084DA84202D0084D1A
:10538000A84204D124F480444D6944EA8514446061
:10539000C2614D680564036230BD00000000014039
:1053A0000004014010B50248FEF716FF10BD0000D2
:1053B0001404002010B50248FEF70EFF10BD0000D7
:1053C0005404002070B50546AC6B0020E085E084F5
:1053D0002046FEF700FF70BD0168C96821F4907196
:1053E0000268D1600168496921F0010102685161D8
:1053F000202180F83A10704710B504462068C06834
:1054000020F040002168C860202084F83900204640
:10541000FFF7C4F9002010BD70B5044694F83A00B7
:1054200022284AD1A068B0F5805F13D1A56A20690F
:1054300040B920684068C0F308002880A06A801C3A
:10544000A06219E020684068C0B22880A06A401CB1
:10545000A06211E0206938B920684068C1B2A26A30
:10546000501CA062117007E02068406800F07F01C6
:10547000A26A501CA0621170E08D401E80B2E085CF
:10548000C8B92068C06820F020002168C860206882
:10549000C06820F480702168C8602068406920F0EE
:1054A000010021684861202084F83A002046FFF777
:1054B0009BF8002070BD0020FCE70220FAE7000006
:1054C0002DE9F84F04462068006920F44050E16857
:1054D0000843216808612169A0680843616908439D
:1054E000E169084300902068C06849F20C61884374
:1054F000009908432168C8602068406920F4407022
:10550000A169084321684861E069B0F5004F75D191
:10551000E3492068884203D0E249206888426FD17D
:10552000FDF702FE814602206168A0FB01510B4697
:105530001920A9FB00712A463846FAF741FE64217A
:10554000B0FBF1F04FEA001A02206168A0FB0151A4
:105550000B461920A9FB00712A463846FAF730FE9F
:10556000074602206168A0FB01510B461920A9FBE8
:1055700000B12A465846FAF723FE6421B0FBF1F049
:1055800000EBC00101EB0010A7EB8000322101EB22
:10559000C0006421B0FBF1F000F0F8000AEB400A13
:1055A00002206168A0FB01510B461920A9FB007184
:1055B0002A463846FAF704FE074602206168A0FB37
:1055C00001510B461920A9FB00B12A465846FAF7AB
:1055D000F7FD6421B0FBF1F000EBC00101EB00101E
:1055E000A7EB8000322101EBC0006421B0FBF1F099
:1055F00000F007005044216888604FE16EE0FFE74B
:10560000FDF782FD814602206168A0FB01510B4637
:105610001920A9FB00712A463846FAF7D1FD64210A
:10562000B0FBF1F04FEA001A02206168A0FB0151C3
:105630000B461920A9FB00712A463846FAF7C0FD2F
:10564000074602206168A0FB01510B461920A9FB07
:1056500000B12A465846FAF7B3FD6421B0FBF1F0D9
:1056600000EBC00101EB0010A7EB8000322101EB41
:10567000C0006421B0FBF1F000F0F8000AEB400A32
:1056800002206168A0FB01510B461920A9FB0071A3
:105690002A463846FAF794FD074602206168A0FBC7
:1056A000015003461920A9FB00B12A465846FAF7D3
:1056B00087FD6421B0FBF1F000EBC00101EB0010AD
:1056C000A7EB8000322101EBC0006421B0FBF1F0B8
:1056D00000F00700504421688860DFE070492068CE
:1056E000884203D06F49206888426BD1FDF71CFDCA
:1056F000814604206168A0FB01510B461920A9FBDB
:1057000000712A463846FAF75BFD8246042061683C
:10571000A0FB01510B461920A9FB00712A4638460F
:10572000FAF74EFD6421B0FBF1F000EBC00101EB94
:105730000010AAEB8000322101EB00106421B0FBC5
:10574000F1F000F0F00A04206168A0FB015003466C
:105750001920A9FB00712A463846FAF731FD642169
:10576000B0FBF1F00AEB001A04206168A0FB0151C4
:105770000B461920A9FB00712A463846FAF720FD8E
:10578000074604206168A0FB015003461920A9FBCD
:1057900000B12A465846FAF713FD6421B0FBF1F038
:1057A00000EBC00101EB0010A7EB8000322101EB00
:1057B00000106421B0FBF1F000F00F0050442168AC
:1057C00088606BE0FDF7A0FC814604206168A0FBC7
:1057D000015003461920A9FB00712A463846FAF702
:1057E000EFFC824604206168A0FB015003461920AB
:1057F000A9FB00712A463846FAF7E2FC6421B0FBA7
:10580000F1F000EBC00101EB0010AAEB80003221A7
:1058100001EB00106421B0FBF1F000F0F00A04206D
:105820006168A0FB015003461920A9FB00712A46BC
:105830003846FAF7C5FC6421B0FBF1F00AEB001A18
:1058400004206168A0FB017003461920A9FB0050E9
:1058500001463A462846FAF7B3FC07460420616839
:10586000A0FB015003461920A9FB00B12A46584667
:10587000FAF7A6FC6421B0FBF1F000EBC00101EBEC
:105880000010A7EB8000322101EB00106421B0FB77
:10589000F1F000F00F00504421688860BDE8F88FF7
:1058A0000010014000140140014691F83900212800
:1058B0002CD18868B0F5805F0FD10A6A1088C0F3D8
:1058C00008000B685860086918B9086A801C0862EB
:1058D00009E0086A401C086205E00B6A581C08626F
:1058E00018780B685860C88C401E80B2C88458B9BC
:1058F0000868C06820F080000B68D8600868C0683D
:1059000040F040000B68D860002070470220FCE7A0
:1059100010B50248FEF760FC10BD000094040020A2
:1059200000BFFEE70FB4084B10B504A902AA039804
:1059300000F004F9044602A9002000F096FC20467D
:1059400010BC5DF814FB00006B62000802480068A0
:10595000C0F30220704700000CED00E010B50028F5
:1059600004DB0A07130E054A135406E00A07140E57
:10597000034A00F00F031B1FD45410BD00E400E0E5
:1059800018ED00E02DED020B019820F00040019091
:105990009DED000B02B0704702E008C8121F08C15D
:1059A000002AFAD170477047002001E001C1121FA0
:1059B000002AFBD1704700002DE9FF5F82B0002173
:1059C000DDE90430020DDDF840B0034318D044F6A1
:1059D0001050A2F2FF3242431514119801281FD033
:1059E000A5EB0B00401C5FEA000A4FF000064E4F8B
:1059F000DFF83891B046504615D5CAF1000413E0DF
:105A0000119801244AA3012801D16FEA0B010298E1
:105A1000119AC0E90031C0E9024206B0BDE8F09F2A
:105A2000CBF10000DFE704460021404A491842EB71
:105A30000450CDE9001012E0E00707D032463B46A3
:105A400040464946FAF781FD8046894632463B4644
:105A500010461946FAF779FD06460F466410002CE9
:105A6000EAD1DDE90401DDE90023BAF1000F06DA2D
:105A7000FAF76BFD42464B46FAF767FD05E0FAF789
:105A8000D6FD42464B46FAF7D2FD04460E460022AA
:105A9000284BFAF797FE03D84FF0FF30014607E096
:105AA0000022254B20463146FAF7A8FCFAF7DCFF26
:105AB000102409E0002C0ADB0A220023FAF780FBFD
:105AC000039B30321A55641E50EA0102F2D1641C65
:105AD000039AC4F111031444119A012A03D001223C
